:020000020000FC
:1000000022C2189518951895B7C018951EC0189556
:10001000189518951895C09160000024F4E0E4E765
:10002000EC0FF01DC895949A0CD09498009409D0C8
:10003000D39589F7C395C03209F4CC27C0936000EB
:10004000089500000A94E9F70895C0EEC2BFC09178
:100050006200D09163001C0E1D1F10F411241127A3
:100060000027103810F000916500C0916600D09113
:1000700067004C0E3D1F10F4442433272227303CE8
:1000800010F020916900C0916A00D0916B007C0E45
:100090005D1F10F477245527452F4295440F4E706D
:1000A000CEE057FFC1E04C27C0916D00D0916E00AB
:1000B000AC0E7D1F40F4C2E0DD0CEE1C0BF4DC2620
:1000C0006D2DC7E06C23020F040F060F08BB1895B7
:1000D00012D0D1E0C4E0DBBDCABDCCE0CEBDC2E0F1
:1000E000C3BFCC27CDBDCCBDC2BFC2E4C9BF7894CD
:1000F000F1FCFECF0895CFEFFC2ECC27C093620019
:10010000C0936300C0936400C0936600C09367000F
:10011000C0936800C0936A00C0936B00C0936C00EA
:10012000C0936D00C0936E00C0936F00CFE0C0938A
:100130006500C093690000272227442766271127FE
:10014000112433274424552777247727AA24D5E080
:10015000C8E33D2E2C2ED6E0C2E06D2E5C2ED6E0FC
:10016000C2E09D2E8C2ED6E0C2E0CD2EBC2E81E0CA
:1001700091E0A1E0B1E00895C0916300CF3F11F498
:10018000FF2460C18A95A1F0813019F0853030F0EC
:100190000BC0DD27C2E02C0E3D1E52C0C091650091
:1001A000C250C09365001EC0CFE0C09365001AC066
:1001B000F32DE22DC89500926400CFE10C22802D32
:1001C000880F800D880F3196C895F4E0E4E9DD27AB
:1001D000E00DFD1FC895009263003196C89500920E
:1001E00062002EC0C0916400C7FD05C0C6FF28C0D4
:1001F000C5FF13C01CC0E0916200F091630082FF54
:1002000006C07096E0936200F093630019C0709787
:10021000E0936200F093630013C0E0916200F091FC
:1002200063003197E0936200F093630009C0E091AE
:100230006200F09163003196E0936200F0936300F6
:100240009A95A1F0913019F0953030F00BC0DD2770
:10025000C2E05C0E6D1E52C0C0916900C250C093D6
:1002600069001EC0CFE0C09369001AC0F62DE52DCD
:10027000C89500926800CFE10C22902D990F900D47
:10028000990F3196C895F4E0E4E9DD27E00DFD1FF4
:10029000C895009267003196C895009266002EC0FE
:1002A000C0916800C7FD05C0C6FF28C0C5FF13C0C8
:1002B0001CC0E0916600F091670092FF06C0709646
:1002C000E0936600F093670019C07097E0936600B2
:1002D000F093670013C0E0916600F09167003197DA
:1002E000E0936600F093670009C0E0916600F0912A
:1002F00067003196E0936600F0936700AA9541F09D
:10030000A13009F01FC0DD27C2E08C0E9D1E48C041
:10031000F92DE82DC89500926C00CFE10C22A02D9C
:10032000AA0FA00DAA0F3196C895F4E0E4E9DD27E5
:10033000E00DFD1FC89500926B003196C8950092A4
:100340006A002EC0C0916C00C7FD05C0C6FF28C062
:10035000C5FF13C01CC0E0916A00F0916B00A2FFC2
:1003600006C07096E0936A00F0936B0019C0709716
:10037000E0936A00F0936B0013C0E0916A00F09183
:100380006B003197E0936A00F0936B0009C0E09135
:100390006A00F0916B003196E0936A00F0936B0075
:1003A000BA9541F0B13009F01FC0DD27C2E0BC0EA4
:1003B000CD1E48C0FC2DEB2DC89500926F00CFE1FB
:1003C0000C22B02DBB0FB00DBB0F3196C895F4E0D9
:1003D000E4E9DD27E00DFD1FC89500926E0031961F
:1003E000C89500926D002EC0C0916F00C7FD05C07A
:1003F000C6FF28C0C5FF13C01CC0E0916D00F0917E
:100400006E00B3FF06C0FC96E0936D00F0936E00A3
:1004100019C0FC97E0936D00F0936E0013C0E0915B
:100420006D00F0916E003897E0936D00F0936E00D0
:1004300009C0E0916D00F0916E003896E0936D0078
:10044000F0936E001895CFEDCDBFC0E8C8B9C0E2FB
:10045000C5BFCFE3C7BBC0ECC8BBC3E1C1BBCCEEDB
:10046000C2BBF894DD27D7DDC0B3C072D1F7949832
:100470002FDEF7CF01020406080A0C1014182028FA
:100480005078BEFAFABE785028201814100C0A08CA
:10049000060402010085008D0095009E00A700B1B2
:1004A00000BC00C700D300DF00ED00FB010A011A09
:1004B000012A013C014F01630178018E01A601BFB1
:1004C00001DA01F60213023302550278029E02C5D8
:1004D00002F0031C034C037E03B303EB0427046602
:1004E00004A904F0053B058B05DF0639069706FCD9
:1004F000076607D7084F08CD095309E10A780B169C
:100500000BBF0C720D2E0DF80ECD0FAE109C119876
:1005100012A413C114ED162C177E18E31A5D1BEFFD
:100520001D981F5B0000FFFF9FF07EF06CF05AF0FB
:1005300048F036F024F012F0023A02420234023A55
:1005400002300238023402380234023A0234023EE7
:100550000234024002340242023A022A021C023AE7
:1005600002180220821C0238821C023A821C023EBF
:10057000821C0240821C0242023A022A021C023AF7
:1005800002180220823402388234023A8234023E57
:100590008234024082340242023A022A021C023AA7
:1005A00002180220821C0238021C023A821C023EFF
:1005B000021C0240821C0242023A022A021C023A37
:1005C0000218022082340238021C023A8234023EAF
:1005D000021C024082340242821C44040490013A0C
:1005E00001420134013A013001380134013801344B
:1005F000013A0134013E0134014001340142431CFF
:1006000001921E901E901E901E901E901E900990AA
:100610001E901E901E901E901E901E9009901E907F
:0C0620001E901E901E901E901E900990CF
:00000001FF
